{"abi":[{"type":"constructor","inputs":[{"name":"_creator","type":"address","internalType":"address"},{"name":"_referrerReputation","type":"address","internalType":"address"}],"stateMutability":"nonpayable"},{"type":"function","name":"UpdateUser","inputs":[{"name":"_username","type":"string","internalType":"string"},{"name":"_salt","type":"string","internalType":"string"},{"name":"_passwordHash","type":"bytes32","internalType":"bytes32"},{"name":"_downloadSize","type":"uint256","internalType":"uint256"},{"name":"_uploadSize","type":"uint256","internalType":"uint256"}],"outputs":[],"stateMutability":"nonpayable"},{"type":"function","name":"allUsers","inputs":[{"name":"","type":"string","internalType":"string"}],"outputs":[{"name":"username","type":"string","internalType":"string"},{"name":"salt","type":"string","internalType":"string"},{"name":"passwordHash","type":"bytes32","internalType":"bytes32"},{"name":"downloadSize","type":"uint256","internalType":"uint256"},{"name":"uploadSize","type":"uint256","internalType":"uint256"}],"stateMutability":"view"},{"type":"function","name":"getUserData","inputs":[{"name":"_username","type":"string","internalType":"string"}],"outputs":[{"name":"","type":"tuple","internalType":"struct Reputation.UserData","components":[{"name":"username","type":"string","internalType":"string"},{"name":"salt","type":"string","internalType":"string"},{"name":"passwordHash","type":"bytes32","internalType":"bytes32"},{"name":"downloadSize","type":"uint256","internalType":"uint256"},{"name":"uploadSize","type":"uint256","internalType":"uint256"}]}],"stateMutability":"nonpayable"},{"type":"function","name":"owner","inputs":[],"outputs":[{"name":"","type":"address","internalType":"address"}],"stateMutability":"view"},{"type":"function","name":"referrerReputation","inputs":[],"outputs":[{"name":"","type":"address","internalType":"address"}],"stateMutability":"view"}],"bytecode":{"object":"0x608060405234801561000f575f5ffd5b5060405161199e38038061199e833981810160405281019061003191906101dc565b815f5f6101000a81548173ffffffffffffffffffffffffffffffffffffffff021916908373ffffffffffffffffffffffffffffffffffffffff1602179055505f73ffffffffffffffffffffffffffffffffffffffff168173ffffffffffffffffffffffffffffffffffffffff16141580156100c257505f8173ffffffffffffffffffffffffffffffffffffffff163b115b15610177578073ffffffffffffffffffffffffffffffffffffffff16638da5cb5b6040518163ffffffff1660e01b8152600401602060405180830381865afa92505050801561012f57506040513d601f19601f8201168201806040525081019061012c919061021a565b60015b15610176578160015f6101000a81548173ffffffffffffffffffffffffffffffffffffffff021916908373ffffffffffffffffffffffffffffffffffffffff160217905550505b5b5050610245565b5f5ffd5b5f73ffffffffffffffffffffffffffffffffffffffff82169050919050565b5f6101ab82610182565b9050919050565b6101bb816101a1565b81146101c5575f5ffd5b50565b5f815190506101d6816101b2565b92915050565b5f5f604083850312156101f2576101f161017e565b5b5f6101ff858286016101c8565b9250506020610210858286016101c8565b9150509250929050565b5f6020828403121561022f5761022e61017e565b5b5f61023c848285016101c8565b91505092915050565b61174c806102525f395ff3fe608060405234801561000f575f5ffd5b5060043610610055575f3560e01c80630fcf75e71461005957806354ab24031461007757806385a702be146100a75780638da5cb5b146100db57806399afd0b0146100f9575b5f5ffd5b610061610115565b60405161006e9190610b0a565b60405180910390f35b610091600480360381019061008c9190610c70565b61013a565b60405161009e9190610dc1565b60405180910390f35b6100c160048036038101906100bc9190610c70565b6105e1565b6040516100d2959493929190610e47565b60405180910390f35b6100e3610737565b6040516100f09190610b0a565b60405180910390f35b610113600480360381019061010e9190610efa565b61075b565b005b60015f9054906101000a900473ffffffffffffffffffffffffffffffffffffffff1681565b610142610a95565b6101646040518060600160405280602381526020016115aa6023913983610880565b5f5f1b6002836040516101779190610fe3565b9081526020016040518091039020600201541461031c576101af6040518060600160405280602f81526020016116e8602f913961091c565b6002826040516101bf9190610fe3565b90815260200160405180910390206040518060a00160405290815f820180546101e790611026565b80601f016020809104026020016040519081016040528092919081815260200182805461021390611026565b801561025e5780601f106102355761010080835404028352916020019161025e565b820191905f5260205f20905b81548152906001019060200180831161024157829003601f168201915b5050505050815260200160018201805461027790611026565b80601f01602080910402602001604051908101604052809291908181526020018280546102a390611026565b80156102ee5780601f106102c5576101008083540402835291602001916102ee565b820191905f5260205f20905b8154815290600101906020018083116102d157829003601f168201915b50505050508152602001600282015481526020016003820154815260200160048201548152505090506105dc565b5f73ffffffffffffffffffffffffffffffffffffffff1660015f9054906101000a900473ffffffffffffffffffffffffffffffffffffffff1673ffffffffffffffffffffffffffffffffffffffff1614610573576103b36040518060600160405280603e81526020016116aa603e913960015f9054906101000a900473ffffffffffffffffffffffffffffffffffffffff166109b5565b60015f9054906101000a900473ffffffffffffffffffffffffffffffffffffffff1673ffffffffffffffffffffffffffffffffffffffff166354ab2403836040518263ffffffff1660e01b815260040161040d9190611056565b5f604051808303815f875af192505050801561044b57506040513d5f823e3d601f19601f8201168201806040525081019061044891906111d5565b60015b610475576104706040518060600160405280603681526020016116306036913961091c565b610572565b5f5f1b81604001511461054f576104a36040518060800160405280604481526020016116666044913961091c565b6040518060a00160405280825f0151815260200182602001518152602001826040015181526020018260600151815260200182608001518152506002846040516104ed9190610fe3565b90815260200160405180910390205f820151815f01908161050e91906113bc565b50602082015181600101908161052491906113bc565b50604082015181600201556060820151816003015560808201518160040155905050809150506105dc565b6105706040518060600160405280602781526020016116096027913961091c565b505b5b6105946040518060600160405280603c81526020016115cd603c913961091c565b6040518060a0016040528060405180602001604052805f815250815260200160405180602001604052805f81525081526020015f5f1b81526020015f81526020015f81525090505b919050565b6002818051602081018201805184825260208301602085012081835280955050505050505f91509050805f01805461061890611026565b80601f016020809104026020016040519081016040528092919081815260200182805461064490611026565b801561068f5780601f106106665761010080835404028352916020019161068f565b820191905f5260205f20905b81548152906001019060200180831161067257829003601f168201915b5050505050908060010180546106a490611026565b80601f01602080910402602001604051908101604052809291908181526020018280546106d090611026565b801561071b5780601f106106f25761010080835404028352916020019161071b565b820191905f5260205f20905b8154815290600101906020018083116106fe57829003601f168201915b5050505050908060020154908060030154908060040154905085565b5f5f9054906101000a900473ffffffffffffffffffffffffffffffffffffffff1681565b5f5f9054906101000a900473ffffffffffffffffffffffffffffffffffffffff1673ffffffffffffffffffffffffffffffffffffffff163373ffffffffffffffffffffffffffffffffffffffff16146107e9576040517f08c379a00000000000000000000000000000000000000000000000000000000081526004016107e0906114fb565b60405180910390fd5b6040518060a00160405280868152602001858152602001848152602001838152602001828152506002866040516108209190610fe3565b90815260200160405180910390205f820151815f01908161084191906113bc565b50602082015181600101908161085791906113bc565b506040820151816002015560608201518160030155608082015181600401559050505050505050565b6109188282604051602401610896929190611519565b6040516020818303038152906040527f4b5c4277000000000000000000000000000000000000000000000000000000007bffffffffffffffffffffffffffffffffffffffffffffffffffffffff19166020820180517bffffffffffffffffffffffffffffffffffffffffffffffffffffffff8381831617835250505050610a51565b5050565b6109b2816040516024016109309190611056565b6040516020818303038152906040527f41304fac000000000000000000000000000000000000000000000000000000007bffffffffffffffffffffffffffffffffffffffffffffffffffffffff19166020820180517bffffffffffffffffffffffffffffffffffffffffffffffffffffffff8381831617835250505050610a51565b50565b610a4d82826040516024016109cb92919061154e565b6040516020818303038152906040527f319af333000000000000000000000000000000000000000000000000000000007bffffffffffffffffffffffffffffffffffffffffffffffffffffffff19166020820180517bffffffffffffffffffffffffffffffffffffffffffffffffffffffff8381831617835250505050610a51565b5050565b610a6881610a60610a6b610a8a565b63ffffffff16565b50565b5f6a636f6e736f6c652e6c6f6790505f5f835160208501845afa505050565b610ac1819050919050565b6040518060a0016040528060608152602001606081526020015f81526020015f81526020015f81525090565b610ac961157c565b565b5f73ffffffffffffffffffffffffffffffffffffffff82169050919050565b5f610af482610acb565b9050919050565b610b0481610aea565b82525050565b5f602082019050610b1d5f830184610afb565b92915050565b5f604051905090565b5f5ffd5b5f5ffd5b5f5ffd5b5f5ffd5b5f601f19601f8301169050919050565b7f4e487b71000000000000000000000000000000000000000000000000000000005f52604160045260245ffd5b610b8282610b3c565b810181811067ffffffffffffffff82111715610ba157610ba0610b4c565b5b80604052505050565b5f610bb3610b23565b9050610bbf8282610b79565b919050565b5f67ffffffffffffffff821115610bde57610bdd610b4c565b5b610be782610b3c565b9050602081019050919050565b828183375f83830152505050565b5f610c14610c0f84610bc4565b610baa565b905082815260208101848484011115610c3057610c2f610b38565b5b610c3b848285610bf4565b509392505050565b5f82601f830112610c5757610c56610b34565b5b8135610c67848260208601610c02565b91505092915050565b5f60208284031215610c8557610c84610b2c565b5b5f82013567ffffffffffffffff811115610ca257610ca1610b30565b5b610cae84828501610c43565b91505092915050565b5f81519050919050565b5f82825260208201905092915050565b8281835e5f83830152505050565b5f610ce982610cb7565b610cf38185610cc1565b9350610d03818560208601610cd1565b610d0c81610b3c565b840191505092915050565b5f819050919050565b610d2981610d17565b82525050565b5f819050919050565b610d4181610d2f565b82525050565b5f60a083015f8301518482035f860152610d618282610cdf565b91505060208301518482036020860152610d7b8282610cdf565b9150506040830151610d906040860182610d20565b506060830151610da36060860182610d38565b506080830151610db66080860182610d38565b508091505092915050565b5f6020820190508181035f830152610dd98184610d47565b905092915050565b5f82825260208201905092915050565b5f610dfb82610cb7565b610e058185610de1565b9350610e15818560208601610cd1565b610e1e81610b3c565b840191505092915050565b610e3281610d17565b82525050565b610e4181610d2f565b82525050565b5f60a0820190508181035f830152610e5f8188610df1565b90508181036020830152610e738187610df1565b9050610e826040830186610e29565b610e8f6060830185610e38565b610e9c6080830184610e38565b9695505050505050565b610eaf81610d17565b8114610eb9575f5ffd5b50565b5f81359050610eca81610ea6565b92915050565b610ed981610d2f565b8114610ee3575f5ffd5b50565b5f81359050610ef481610ed0565b92915050565b5f5f5f5f5f60a08688031215610f1357610f12610b2c565b5b5f86013567ffffffffffffffff811115610f3057610f2f610b30565b5b610f3c88828901610c43565b955050602086013567ffffffffffffffff811115610f5d57610f5c610b30565b5b610f6988828901610c43565b9450506040610f7a88828901610ebc565b9350506060610f8b88828901610ee6565b9250506080610f9c88828901610ee6565b9150509295509295909350565b5f81905092915050565b5f610fbd82610cb7565b610fc78185610fa9565b9350610fd7818560208601610cd1565b80840191505092915050565b5f610fee8284610fb3565b915081905092915050565b7f4e487b71000000000000000000000000000000000000000000000000000000005f52602260045260245ffd5b5f600282049050600182168061103d57607f821691505b6020821081036110505761104f610ff9565b5b50919050565b5f6020820190508181035f83015261106e8184610df1565b905092915050565b5f5ffd5b5f5ffd5b5f61109061108b84610bc4565b610baa565b9050828152602081018484840111156110ac576110ab610b38565b5b6110b7848285610cd1565b509392505050565b5f82601f8301126110d3576110d2610b34565b5b81516110e384826020860161107e565b91505092915050565b5f815190506110fa81610ea6565b92915050565b5f8151905061110e81610ed0565b92915050565b5f60a0828403121561112957611128611076565b5b61113360a0610baa565b90505f82015167ffffffffffffffff8111156111525761115161107a565b5b61115e848285016110bf565b5f83015250602082015167ffffffffffffffff8111156111815761118061107a565b5b61118d848285016110bf565b60208301525060406111a1848285016110ec565b60408301525060606111b584828501611100565b60608301525060806111c984828501611100565b60808301525092915050565b5f602082840312156111ea576111e9610b2c565b5b5f82015167ffffffffffffffff81111561120757611206610b30565b5b61121384828501611114565b91505092915050565b5f819050815f5260205f209050919050565b5f6020601f8301049050919050565b5f82821b905092915050565b5f600883026112787fffffffffffffffffffffffffffffffffffffffffffffffffffffffffffffffff8261123d565b611282868361123d565b95508019841693508086168417925050509392505050565b5f819050919050565b5f6112bd6112b86112b384610d2f565b61129a565b610d2f565b9050919050565b5f819050919050565b6112d6836112a3565b6112ea6112e2826112c4565b848454611249565b825550505050565b5f5f905090565b6113016112f2565b61130c8184846112cd565b505050565b5b8181101561132f576113245f826112f9565b600181019050611312565b5050565b601f821115611374576113458161121c565b61134e8461122e565b8101602085101561135d578190505b6113716113698561122e565b830182611311565b50505b505050565b5f82821c905092915050565b5f6113945f1984600802611379565b1980831691505092915050565b5f6113ac8383611385565b9150826002028217905092915050565b6113c582610cb7565b67ffffffffffffffff8111156113de576113dd610b4c565b5b6113e88254611026565b6113f3828285611333565b5f60209050601f831160018114611424575f8415611412578287015190505b61141c85826113a1565b865550611483565b601f1984166114328661121c565b5f5b8281101561145957848901518255600182019150602085019450602081019050611434565b868310156114765784890151611472601f891682611385565b8355505b6001600288020188555050505b505050505050565b7f4f6e6c7920746865206f776e65722063616e2063616c6c20746869732066756e5f8201527f6374696f6e2e0000000000000000000000000000000000000000000000000000602082015250565b5f6114e5602683610de1565b91506114f08261148b565b604082019050919050565b5f6020820190508181035f830152611512816114d9565b9050919050565b5f6040820190508181035f8301526115318185610df1565b905081810360208301526115458184610df1565b90509392505050565b5f6040820190508181035f8301526115668185610df1565b90506115756020830184610afb565b9392505050565b7f4e487b71000000000000000000000000000000000000000000000000000000005f52605160045260245ffdfe2d2d2d2067657455736572446174612063616c6c656420666f722027257327202d2d2d43617465676f727920363a2055736572206e6f7420666f756e6420616e7977686572652e2052657475726e696e6720656d707479207374727563742e43617465676f727920343a2055736572204e4f5420666f756e6420696e2072656665727265722e43617465676f727920353a2045787465726e616c2063616c6c20746f20726566657272657220636f6e7472616374206661696c65642e43617465676f727920333a205573657220666f756e6420696e2072656665727265722e204d6967726174696e67206461746120746f207468697320636f6e74726163742e43617465676f727920323a2055736572206e6f7420696e2063757272656e7420636f6e74726163742e20436865636b696e6720726566657272657220617443617465676f727920313a205573657220666f756e6420696e207468652063757272656e7420636f6e74726163742ea26469706673582212208e4c8c682778dd93d826c27f132a72978031a7ef0aa89b2fadb1e6f292665c4c64736f6c634300081e0033","linkReferences":{}},"methodIdentifiers":{"UpdateUser(string,string,bytes32,uint256,uint256)":"99afd0b0","allUsers(string)":"85a702be","getUserData(string)":"54ab2403","owner()":"8da5cb5b","referrerReputation()":"0fcf75e7"},"id":16}